:020000041000EA
:1000000000B5324B212058609868022188439860DF
:10001000D860186158612E4B002199600421596104
:100020000121F02299502B49196001219960352056
:1000300000F044F80222904214D00621196600F024
:1000400034F8196E01211966002018661A6600F04E
:100050002CF8196E196E196E052000F02FF8012189
:100060000842F9D1002199601B49196000215960AB
:100070001A491B48016001219960EB211966A021F2
:10008000196600F012F800219960164914480160C1
:100090000121996001BC002800D000471248134993
:1000A000086003C880F30888084703B5996A0420EC
:1000B0000142FBD001200142F8D103BD02B5186610
:1000C0001866FFF7F2FF186E186E02BD00000240BE
:1000D000000000180000070000035F00212200005C
:1000E000F4000018222000A00001001008ED00E03C
:1000F000000000000000000000000000070B8FD58A
:1001000000040420C502001011900010C702001066
:10011000C7020010C7020010C7020010C70200107B
:10012000C7020010C7020010C7020010C70200106B
:10013000C7020010C7020010C7020010C70200105B
:10014000319D0010699D0010A19D0010C99D0010F7
:10015000C702001005A00010C7020010357500107E
:10016000C7020010C7020010C7020010C70200102B
:10017000C7020010C7020010C7020010C99000108B
:10018000E9900010C7020010C7020010C70200105B
:10019000C7020010C7020010C7020010C7020010FB
:1001A000C7020010C7020010C7020010C7020010EB
:1001B000C7020010C7020010C7020010C7020010DB
:1001C00072B62C4880F308882B4880F309880220F7
:1001D00080F31488BFF36F8F28482949086008F01E
:1001E0006DFA07F0BAFD27482749224A914202DA00
:1001F00008600431FAE725491F4A914202DA086093
:100200000431FAE72249234A234B14469A4204DA7E
:100210000868106004310432F8E719490C601F497E
:100220001F4A204B9A4204DA0868106004310432F5
:10023000F8E700201C491D4A914202DA08600431A7
:10024000FAE708F03DFA07F009F8194C194DAC42ED
:1002500003DA216888470434F9E702F0E3FE164C1C
:10026000164DAC4203DA216888470434F9E7144993
:100270000847000000040420000C042000010010C6
:1002800008ED00E0555555550000042000040420F9
:100290000001001000010010C001001080C3001018
:1002A00000000020880E0020880E0020FC36002070
:1002B000C0010010C0010010C0010010C0010010FA
:1002C000BF8600107CE700F000F8FEE7F0B544467A
:1002D0004D4656465F46F0B46B46CB60C3689D46BC
:1002E000F0BCA046A946B246BB46F0BD08F00FFFE1
:1002F00062B6281CA047002008F085FDFEE708F044
:100300007FFC024A024B1360FEE7C04604ED00E0AA
:100310000000008002B471464908490009564900AE
:100320008E4402BC7047C04602B471464908490079
:10033000095C49008E4402BC7047C04603B4714654
:10034000490840004900095A49008E4403BC7047DF
:100350007047C046414208401C2101231B049842BB
:1003600001D3000C10391B0A984201D3000A083946
:100370001B09984201D30009043902A2105C401AFB
:100380007047C0461B1C1D1D1E1E1E1E1F1F1F1F4B
:100390001F1F1F1F844608006146FFE71FB50BF0B3
:1003A000CEF8002801D40021C8421FBD10B50BF0C3
:1003B00051F84042013010BD10B50BF0C0F80028D4
:1003C00001DB002010BD012010BDC04610B50BF0B0
:1003D000B6F8002801DD002010BD012010BDC04688
:1003E00010B50BF05EF8002801DC002010BD0120E4
:1003F00010BDC04610B50BF054F8002801DA0020FB
:1004000010BD012010BDC0461C2101231B049842D1
:1004100001D3000C10391B0A984201D3000A083995
:100420001B09984201D30009043902A2105C40184C
:100430007047C046040302020101010100000000F0
:100440000000000030B5032A19D903000B43551EE4
:100450009B0710D0002303E05A1C9D4212D01300CA
:10046000C25CCC5CA242F7D0101B0CE0043A043012
:100470000431032A03D904680B689C42F6D0551E48
:10048000002AE7D1002030BDF0B50500830749D030
:10049000541E002A45D003000326CAB202E00135EB
:1004A000013C3ED301332A703342F8D1032C30D9BA
:1004B000FF220A401502AD182A04AD180F2C34D9BA
:1004C0002700103F3F093E01B4461E001A001036B7
:1004D0006644156055609560D56010329642F8D13B
:1004E00001373F01DB190F270C22274022403C0037
:1004F000002A0ED03E1FB608B400A4461A001C1DE8
:10050000644420C2A242FCD103240136B6009B19E8
:100510003C40002C05D0C9B21C19197001339C4213
:10052000FBD1F0BD03001400C0E72700E2E7C0469E
:10053000F0B505000F2A33D90324030026000B432E
:100540001E401C4237D11500103D2D0903000C0040
:10055000AC462F013F1865685D60A5689D60E56841
:10056000DD60256810341D601D001033BD42F2D1DE
:1005700065460F230C2401352D01491913404519F7
:1005800014421AD08C59AC5104369C1B032CF9D858
:10059000043B9B0801339B00ED18C91803231A4044
:1005A000561E002A06D00023CC5C1A00EC540133FE
:1005B0009642F9D1F0BD561EF5E71A00F0E7C046A5
:1005C0007FB505008C794B782609E407E40F0A789B
:1005D000039602944C8805480194497900912900BA
:1005E00003F06CF8012004B070BDC04685B7001060
:1005F00010B5130004000120062C0CD809290AD8D4
:10060000052A08D806224A433C2161435218024871
:10061000D2185200105A10BDAAB80010F822411E7C
:10062000FF39030030B500205201914217D28022D9
:10063000802480219200D8051A40C00FE4000901EF
:10064000DD040DD50001002A01D0202210432342F1
:1006500001D0402210430B4201D08023184330BD0B
:10066000002A01D002221043234201D00422104369
:100670000B42F4D00823F1E710B50C00FFF7CEFFD2
:10068000A04710BD0300E03B10B50400072B02D9C2
:100690000549002800D105492000FFF7EDFFE0B231
:1006A00000F0EAF910BDC0467D0C0010D10B00101F
:1006B00010B50400C0B200F023FA2300E03B072B82
:1006C00002D90449002C00D103492000FFF7D4FFD0
:1006D00010BDC0468D0C00106D0C0010012070473D
:1006E00010B5FFF7FBFF10BD0120704710B5FFF7F5
:1006F00067FF10BD704710B5FFF7FCFF10BD00008D
:1007000013B5114B00901B780191002B16D16B464D
:100710005B79002B0DD0002A0BD000F0B5FF040050
:100720000100009800F088FF2000009901F01AFFF6
:1007300016BD009800F094FF0400F5E7009800F063
:10074000A3FF0099F2E7C046AA0E002010B50300EF
:1007500000890A00002806D1588819880004084337
:100760009988FFF7CDFF10BD70B501210400FFF798
:10077000EDFF21000500FFF7B3FF0023984204D0EE
:100780002100280004F008FC03000120184070BD7F
:1007900010B504000021FFF7D9FF2100FFF7ABFFE0
:1007A00010BD0120704710B5FFF7FBFF10BD000022
:1007B00010B5040000F088FA2000FFF7F4FF0248AB
:1007C00008F029FB10BDC04690D0030010B50120F1
:1007D000FFF7EEFF06F038FD10BD10B50020FFF763
:1007E000E7FF06F023FD10BD70B504000D0006F014
:1007F0008DF8002804D001212800FFF7A7FF04008E
:100800002900200006F0BAF9002854D02900200061
:1008100003F072FD00284ED029002000FFF766FF8C
:10082000002848D02900200005F006F9002842D011
:100830002900200006F088F800283CD0290020007C
:1008400004F016F9002836D02900200005F0CEFF6C
:10085000002830D02900200005F044FA00282AD0D2
:100860002900200004F0D4FF002824D02900200013
:1008700006F0E4F800281ED06B79002B0CD0144B46
:100880009C421FD00CD8134B9C4218D0124B9C4258
:1008900013D0033B9C420CD02800FFF725FF0BE050
:1008A0000E4B9C4211D00E4B9C42F5D101F0CAFB7D
:1008B000F2E7FFF78BFF002070BD01F0D9FBFFF7D7
:1008C0008CFFF8E701F0CAFBE6E701F0CCFBE3E7B9
:1008D0005A7C0000017C0000037C00005B7C00006F
:1008E0005C7C000010B504000121FFF72FFF210000
:1008F000FFF77AFF10BD10B506F0DBFB00F03CF807
:1009000010BD10B500F03DF806F0D8FB10BD030097
:10091000000901D0030004209A0802D0130002301D
:10092000C0B25B0801D00130C0B270473321020968
:100930000001C0B20243930092100A408B4313435C
:100940005522DBB258005B10904313401843C0B2ED
:10095000704701207047704770B5051CFFF7F9FF1D
:10096000041E02D0281CFFF7F6FF200070BD704760
:1009700010B5FFF7F1FF10BD10B50020FFF7F8FF2D
:1009800010BD10B506F0EAF9FFF7F2FF10BD000048
:1009900010B506F0E3F9074B04001A78824207D03D
:1009A000187006F0E9FB044B18602000FFF7E0FF29
:1009B00010BDC046880E00208C0E002010B586B0F9
:1009C0000B0A0191C9B20090DBB2002903D01D4986
:1009D0000A6801320A60002B01D001F0B1F9042449
:1009E0001220220000216844FFF74EFD009B6A465A
:1009F00003936B469B881382134B5B78234210D082
:100A0000124B5B88002B0CD001F046F9002802D075
:100A1000022001F0E7FA01F01BF9002801D001F0F3
:100A200023FA6B461B7C002B06D103980499059A88
:100A300001F0A2F806B010BD03A8FFF795FE00284C
:100A4000F3D1F7E7AC0E002054340020B435002079
:100A5000037910B5012B02D1008800F037FE10BDDC
:100A600010B5002904D005F09BFA05F063FB10BD1A
:100A700005F0ECFAF9E7000010B5041E11D0031FD1
:100A8000DBB2A02B0ED806F0F7F9002804D0200026
:100A900006F07AFA01F060FA200006F059FA01F047
:100AA0005BFA10BD03002033DBB2072B07D8072306
:100AB000034001209840C0B201F016F9EFE70300AF
:100AC0005B33DBB2022B04D8243CA0B206F07CF9E5
:100AD000E7E703005833DBB21A2B05D8074A5B005F
:100AE000985A06F08BF9DCE703003333DBB2122BA4
:100AF000D7D805F055FA05F01DFBD2E7F2BB001080
:100B000010B5002807D0031FDBB2A02B04D806F0D5
:100B10003BFA01F021FA10BD03002033DBB2072BB2
:100B200007D80723034001209840C0B201F0E4F841
:100B3000EFE703005B33DBB2022B03D8002006F0A3
:100B400043F9E8E703005833DBB21A2B03D800203F
:100B500006F054F9DFE703003333DBB2122BDAD8A7
:100B600005F074FA05F0E6FAD5E770B5FA26050047
:100B70000C00FFF781FFB600002C03D12800FFF71F
:100B8000BFFF70BD3000013C08F045F9A4B2F3E7A7
:100B900010B5044B392803D1198CFFF7E6FF10BDBF
:100BA000D98BFAE7B4350020012370B5074D002436
:100BB0002B7501F0A9F8AB7CA34200D870BD2B19AE
:100BC000587B0134FFF7E4FFE4B2F4E7900E002015
:100BD00010B5002803D001F087F801F0BDF910BD71
:100BE00070B5184C0A002378002B29D0042100236B
:100BF00081425B41E07C19005023814201D1FA23FC
:100C00009B00607C332105008D4307D02179814210
:100C100004D1191C782B00D278218BB2E18A257D72
:100C2000511A89B2994206D9002D01D1FFF7D0FFA0
:100C30000123237570BD002DFCD1FFF7B5FFF9E747
:100C4000E182F7E7900E002010B5074C2378002BC7
:100C500007D0237D002B02D1607CFFF7B9FF002372
:100C60002376002010BDC046900E002010B500284D
:100C700003D001F041F801F06FF910BD10B5002864
:100C800003D001F04DF801F067F910BD10B5002850
:100C900003D001F04DF801F05FF910BD10B5002050
:100CA00006F092F8002006F0A9F801F049F801F0EA
:100CB00053F905F0B3FA05F03DFA10BD10B506F092
:100CC0007FF9FFF7EBFF10BD10B501F01DF8FFF73E
:100CD000F5FF10BDC2B20004030F062B18D00F2180
:100CE000062B0ED80E3300200B40012B08D8012014
:100CF000F02A05D007D80020E72393424041C0B234
:100D000070470633EFE7F43A100043425841F6E7E4
:100D10000120E72AF4D9F13A53425A41D0B2EFE721
:100D20000279030010B5101E06D01889002804D0DF
:100D300001F030FBFFF7CEFF10BD188800F0C6FCB5
:100D4000F8E70000F0B503788BB007934378477954
:100D5000039343880290059383790D1C1B09069326
:100D60006B461B7E019300F0AFFF0490002829D052
:100D70000497002F26D02B041B0E0F22190091433D
:100D8000402910D0E9B20A0000202032D2B20490EB
:100D9000072A17D91F229343202B04D1012911D9E7
:100DA000019B83420ED00022B84B04925B785B0714
:100DB00008D5022001F016F900F086FF0123434018
:100DC000DBB204932B04180F0B2828D8FFF7B6FAD0
:100DD0000C000C006C006C00CE01E3012700270022
:100DE000E80147025A025A022C052B04240F1B0E5D
:100DF0000F2B00D92401EEB2002F40D03300203356
:100E0000DBB2002C36D02000072B01D9002E28D1D0
:100E100000F06AFF01F0A0F83000FFF72DFE281C5B
:100E2000FFF758FF002800D0E1E20022984B1A603B
:100E3000049B002B13D000F027FF012302001A406F
:100E400018420CD1029B5A7100F018FF00F084FB8D
:100E5000029800F00DFB00F011FF00F089FB0BB0D1
:100E6000F0BD00F05DFF01F077F805990398FFF7FA
:100E7000B7FED1E7072BCFD9002ECDD0F5E7300054
:100E8000FFF73EFE002CCAD033002033DBB2200037
:100E9000072B01D9002E02D100F02EFF01E000F057
:100EA00047FF01F059F8BAE70F222B042E051B0E5D
:100EB000360F9343202B00D03601EBB20897002B5E
:100EC0000DD0012B60D0019B002F00D1C5E0002B7D
:100ED0006AD003980599FFF783FEE8B29DE76B4B54
:100EE0005B785B0712D4002F08D0002E04D03000AE
:100EF00000F0FAFE01F030F800208EE73800FFF72E
:100F0000FFFD002E00D18AE73000C5E7019B002FCE
:100F10001FD0002B03D13000FFF75AFE7FE7019B63
:100F2000012B03D1300000F059FF78E7594B1B7FAC
:100F3000012B00D873E7019A934200D06FE730008D
:100F4000FFF746FE300000F05FFF300000F022FFA8
:100F500065E7002B09D13000FFF788FE300000F074
:100F600053FF300000F026FF59E74A4B1B7F012B4F
:100F700000D854E7019B012B00D050E700F0AEFEF3
:100F8000064200D14BE7E6E7434B019ADB7F002F97
:100F900003D09A4200D942E7BDE79A4200D33EE728
:100FA0003000FFF763FE3AE73C4B1A78002A46D13F
:100FB000DB8A059AD31A9BB29F2B07D822233200D3
:100FC0009A4303D0E8B2FFF7E3FD28E70122334B51
:100FD00004211A70079A039C5A70039A1E719A7022
:100FE000EAB2DA7000221000A14250415A749A7499
:100FF000D8741A75294C059BE382A37C032B0CD86B
:101000005A000798A1184871254952180399517040
:10101000E218E9B201335173A374637C32003343A5
:10102000637433239A4300D175E7227E002A00D0EF
:10103000F5E678201B4904F0AFF92076EFE60422AC
:101040000199039CA2424941DA7C9142D2D01B7D96
:10105000002BB7D1FFF7A8FDB4E7002B31D0EAB2DF
:101060000C4B392A2BD1188C002821D000233900B1
:101070000D4A0AF0DDFA00230C4A80185941FA2281
:10108000002392000AF0CCFA13E0C046543400204A
:10109000AC0E0020B4350020B7350020900E0020A3
:1010A000950E0020490C001040420F00E70300009D
:1010B000012007F0B0FEE8B2FFF722FDAFE6D88BC3
:1010C000D2E7B44C2378002B00D169E7A378039AC8
:1010D000934222D16378079A93421ED16B46207EB9
:1010E0001B7E2370002804D004F062F96B461B7E3F
:1010F00023760024A74B9A7C0693A74B099205936D
:10110000099B9C420ED1089AA24B002A01D0013CB7
:101110009C745A7CB2435A7442E79E4B1B79B3428B
:10112000E7D17CE6089B002B12D0059B0222190018
:10113000981EFFF7FDF9069B069A5B7B1373069BCF
:10114000013401330693059BE4B202330593D7E7DC
:10115000059B039A5B789342F1D1059B079A1B7814
:101160009B1A5A425341DBB20893E8E72805800FE7
:101170000AD0012800D052E60020874201D0A805FD
:10118000800D05F03BFE4AE6002F01D0A805800D3A
:1011900005F01AFE43E63900E8B2FFF761FC3EE6CF
:1011A0009B019B0F2BD1002F1BD110212B065B0F16
:1011B0009B002A07DBB2120F9A400800D2B22840E7
:1011C000294203D00F209840C043C0B22B059B0F8B
:1011D0001043022B0DD0032B0ED0012B06D000F0B4
:1011E0008DF905F0BBFDFFF7C3FB18E600F07CF9B5
:1011F000F7E700F08DF9F4E700F071F9F1E7AB05DE
:101200009B0FDAB2002F1ED0DB07EAD510212B0688
:101210005B0F9B002A07DBB2120F9A400800D2B284
:101220002840294203D00F209840C043C0B22B056C
:101230009B0F1043022B0CD0032B0DD0012B05D09C
:1012400000F0B8F9CDE7012ACBD9DFE700F0A8F923
:10125000C7E700F0B9F9C4E700F06AF9C1E72C0567
:10126000EEB2240F002F06D0200000F075F93000F8
:10127000FFF7AEFCB5E73000FFF7F8FC200000F008
:1012800077F9AEE7ECB22000F038042872D8FFF707
:101290004BF8032712192300404B019ADB7F002FE4
:1012A00006D09A429DD2E804C00E00F06DF998E78E
:1012B0009A4296D8F7E7E804C00E002FDFD100F07D
:1012C0004BF98EE7002F04D0E804C00E00F03DF982
:1012D00087E700F035F984E7314B5B785B0704D48E
:1012E000E804C00E002FCAD0E9E72E4C237F012B63
:1012F00029D9002F1AD000F0C7FC042808D100F02B
:1013000063FEE804C00E00F033F90023049368E79D
:10131000237F019A9342F8D9EC04E40E200000F0F8
:101320001BF90321200000F031FEEEE7019A934201
:1013300005D800F049FEE8040421C00EF3E70120BF
:1013400000F050FEE1E7002F09D0EC04E40E20008D
:1013500000F002F90321200000F018FE41E701200F
:1013600000F040FE019B012B00D83AE7022000F07C
:1013700039FE36E7019B002F16D0002B07D00398CB
:101380000599FFF72DFC2000FFF776FB29E7E8041D
:10139000C00E94E7900E0020950E0020B735002077
:1013A00054340020B4350020002B1DD0214B392CA3
:1013B00018D1188C00280ED0002339001E4A0AF0DC
:1013C00037F900231D4A80185941FA220023920060
:1013D0000AF026F900E0012007F01DFD2000FFF7CC
:1013E0008FFBFEE6D88BE5E7E804C00E47E7019BDC
:1013F000002F03D0002B00D017E519E5002B00D0FB
:1014000013E5029A029B50881B88000491881843B8
:10141000019AFFF775F9029903F05AF9002800D1F3
:1014200003E5074B1B68022B00D0FEE4E8B2FFF790
:10143000AFFBFAE4B435002040420F00E7030000A0
:10144000AC0E002070B50400008900280BD000F01D
:10145000A1FF051C00F0C2F800F040F8291C200094
:10146000FFF770FC70BD6079218800F039F9F0E772
:10147000037910B50400002B11D0FFF733FA0028D0
:101480000ED100F021FC002809D06379002B06D092
:10149000074B5B785B0702D5022000F0A3FD10BD6F
:1014A0002000FFF7CFFF2000FFF772F9F7E7C046F3
:1014B0005434002082B002B0704784B004B070474A
:1014C000704710B5FFF7FCFF10BD000010B5FFF727
:1014D000F8FF014B187010BDC90E0020704710B501
:1014E000FFF7F4FF10BD000010B5034B1B78184345
:1014F000FFF7ECFF10BDC046C90E002010B5034B2E
:101500001B781840FFF7E2FF10BDC046C90E00204F
:1015100010B5034B1B785840FFF7D8FF10BDC046ED
:10152000C90E0020704710B5FFF7FCFF10BD00008A
:1015300010B5FFF7F8FF014B187010BDC80E002062
:1015400010B50020FFF7F4FF10BD0123834010B554
:10155000D8B2FFF7EDFF10BD0123834010B5034A59
:1015600010781843C0B2FFF7E3FF10BDC80E00208B
:101570000123834010B5034A10789843FFF7D8FF42
:1015800010BDC046C80E00200123834010B5034A99
:1015900010785840C0B2FFF7CBFF10BDC80E002036
:1015A00010B5034B1B781843FFF7C2FF10BDC046B0
:1015B000C80E002010B5034B1B781840FFF7B8FF8A
:1015C00010BDC046C80E002010B5034B1B78584014
:1015D000FFF7AEFF10BDC046C80E002070470323C2
:1015E00070B50126CC086343D21807233500194093
:1015F0008D400021EDB20300CB40545C33405B4290
:1016000063402B405C40545401310329F3D170BD39
:1016100030B50724032300220440C00843430125BA
:101620001000C9188B5CE3402B40934001321843F3
:10163000C0B2032AF6D130BD13B5030401AA10804D
:101640001B0E0800092B08D81478052C05D8062194
:101650005943024A0919FFF7C2FF13BDB00E00201B
:1016600007B5030401AA10801B0E0020092B08D81F
:101670001278052A05D80630584302498018FFF72A
:10168000C7FF0EBDB00E0020F7B5062401270D4A96
:101690000D4B12781B7801AE1A4330800092009BEC
:1016A00023413B4204D1013CF9D200252800FEBD74
:1016B000E5B22800316800F075FF80B20128F2D051
:1016C000F4E7C046C80E0020C90E002007B501ABE4
:1016D00018800198FFF7D8FF019900F063FF0EBD55
:1016E00013B501AB19800E4B1B78002B03D001986A
:1016F000FFF7ECFF16BD00280CD00198FFF7C4FFE0
:10170000040001000198FFF797FF2000019900F005
:1017100049FFEFE70198FFF7A3FF0400F5E7C04694
:10172000AA0E002030B50400012005008D402900DC
:101730000500954098402A00030020000A43D1B2DA
:10174000984322408A4201D11C43E0B230BD0000E0
:1017500010B504001300044A10780A002100FFF7B6
:10176000E1FFFFF7E5FE10BDC80E002070B50A25A9
:1017700007260C4B1C780C4B1B78A34200D170BD84
:101780002A006243094B0134D15A9B1858889A8821
:1017900000040843D9883440090411431A89FFF72B
:1017A0008CFEE8E7CA0E0020CB0E0020CC0E0020F5
:1017B000064B10B558881A88D988000410439A88B7
:1017C000090411431A89FFF778FE10BD1C0F002091
:1017D000F7B5072701900E480E4B00781B78009054
:1017E0000D48009CA34201D10020FEBD0A255D43A7
:1017F000441966788E4206D12D5C019EB54202D115
:101800006479944202D101333B40EAE70120ECE7DE
:10181000CB0E0020CA0E0020CC0E0020F8B51D4CC7
:10182000A3790F2B31D86379002B2ED01A4B1E7859
:101830001A4B1B78B34228D00A257543184BED1874
:101840002B79002B22D02A8823889A421ED16979CD
:1018500000291BD16F8863882000FF1AFEF776FFEE
:101860002100BFB202F022FD87420FD20F211022C9
:10187000A37920000B401343A371AB790B401A43AB
:10188000AA71FFF7F5FDFFF771FFF8BD07230136D9
:101890001E40CDE71C0F0020CA0E0020CB0E0020FA
:1018A000CC0E0020F0B504008DB00100062207A880
:1018B000FEF73EFE2378AF4D039363786679049379
:1018C00063880093237902932B79002B19D1029B13
:1018D000002B00D102E1002E00D142E12000FFF7F1
:1018E0001FFA002800D13CE10A2221002800FEF75F
:1018F0001FFE2800FFF7ACF8FFF790FFFFF758FF37
:10190000ECE000212800FEF721FF6B79070001932E
:10191000019A6B88002A00D1E2E0009A0021D31AD4
:101920009BB228000593FEF711FF290002F0BEFCD0
:10193000059B834200D3ADE0029B002B00D1CDE09C
:10194000AB79298822880F2B00D970E0914215D1FC
:1019500029892289914211D1002E2AD10F221A40C1
:1019600010231343AB71FFF723FF2800FFF780FD1F
:10197000AB79A371002528000DB0F0BD002E18D161
:10198000320004990398FFF723FF00281CD0380089
:10199000784902F08DFE002816D0764C2000FFF723
:1019A00067FD0A2200212000FEF76EFDFFF700FF11
:1019B000E0E701236F4938008A7913438B7102F005
:1019C0007FFE0028D6D0E8E7002204990398FFF7AD
:1019D000FFFE051ECED10798FFF778FEC3B20004C4
:1019E0000F21020F032A08D8012A0FD9000E014245
:1019F00011D0A2790F2A0ED8BDE706320A40012A7B
:101A00000ED92000FFF734FD019DB4E7000E01421E
:101A100001D0002BAFD02033DBB2072BABD9F0E7DE
:101A2000EF2BA8D90F33DBB2022BA4D9E9E79142FF
:101A30000FD12989228991420BD1002E09D1A3719E
:101A40002000FFF715FD0A2221002800FEF770FD97
:101A500054E72000FFF764F9002800D181E0002E50
:101A600000D17EE0434B9A791F2A0DD9198809A825
:101A700001800099418019798271017100214171C1
:101A80001B890381FFF7F4FC0A2221003948FEF785
:101A90004FFD31E7AB790F2B0AD807980899FFF76C
:101AA00009FD2800FFF7E4FC0A22002128007BE75B
:101AB000029A002A12D0298822889142C9D1298904
:101AC00022899142C5D1002EC3D12000A371FFF716
:101AD000CFFC0A2231002800FEF7D6FC01254AE798
:101AE000009A01992800D71AFEF730FE2900BFB2EC
:101AF00002F0DCFB874238D2029B002BEED0002E96
:101B00002FD02A8823889A4222D12A8923899A426F
:101B10001ED16B88009AD31A9BB2C72B12D8AB790F
:101B2000DA070FD40F2B0DD90F211A00A3718B43A5
:101B3000F02B00D184E7D3B21A09013212010B4015
:101B400013437CE70A2221002800FEF7F1FCC5E7D9
:101B50002000FFF7E5F8002896D10123AA79134366
:101B6000AB712000FFF784FCB8E707980899FFF7EE
:101B7000A1FC99E71C0F0020F0B589B001AE0190DF
:101B800030007160B260FFF78DFE2A4D071E2A4CAF
:101B90000ED03379002B04D001987168B268FFF73A
:101BA0008CFC0A2720782B78834227D109B0F0BD1E
:101BB000320005AB9C4603CA03C312881A803079F1
:101BC0002B7822780028ECD007205E1C0640964235
:101BD0000AD00A22534319486146C018FEF7A8FCF0
:101BE0002E70FFF7C3FDDCE7FFF76EF80A2239001D
:101BF00013482F702770FEF747FCD2E778430F4E4B
:101C00008019FFF74FFE0028D0D023787B439A5BE2
:101C1000F3185888D988000410439A88090411439E
:101C20001A89FFF74AFC07222378013313402370F7
:101C3000B8E7C046CB0E0020CA0E0020CC0E002014
:101C40001C0F0020014B18787047C046540F00202D
:101C500070B50024074D6B88A34208D005F0D4FA74
:101C6000054B1B88C01A6B8880B2984264412000E3
:101C700070BDC046B4350020520F0020014B1878CB
:101C8000C0087047500F0020024B187807231840F7
:101C90007047C046500F002010B505F0B5FA074B4D
:101CA000074A1B885288C31A9BB200209A4204D864
:101CB000044B01301B789B08984310BD4E0F002049
:101CC000B4350020500F0020034B1878072318402C
:101CD000431E9841C0B27047500F0020014B187846
:101CE0007047C046810F0020024B1A7810431870CD
:101CF0007047C046810F0020024A13788343137057
:101D00007047C046810F00200022014B1A707047B7
:101D1000810F0020014B18787047C046800F0020CB
:101D2000024B1A78104318707047C046800F00208D
:101D3000024A1378834313707047C046800F002017
:101D40000022014B1A707047800F0020014B187061
:101D50007047C0467F0F00200022014B1A70704769
:101D60007F0F0020014B18707047C0467E0F002087
:101D70000022014B1A7070477E0F0020014B18782B
:101D80007047C046550F0020704710B5FFF7FCFFA5
:101D900010BD00000300190010B5054A107801407D
:101DA000994203D018431070FFF7EFFF10BDC046F3
:101DB000540F0020030010B5044A1078034203D0EA
:101DC00098431070FFF7E1FF10BDC046540F00208C
:101DD000704710B5FFF7FCFF10BD000070B5084D4F
:101DE00004002B780340834209D005F00DFA054B1F
:101DF00018802B78200023432B70FFF7EAFF70BD7B
:101E0000550F0020520F002010B5084C23781842BF
:101E10000BD0834300202370834201D005F0F4F9F6
:101E2000034B18802078FFF7D4FF10BD550F00201A
:101E3000520F0020094B70B55B7804005B070BD58F
:101E4000074D2B78834207D005F0DEF9054B2C7047
:101E500018802000FFF7BDFF70BDC046543400203D
:101E6000550F0020520F002010B5054B1A78002A9C
:101E700005D000201870034B1880FFF7AAFF10BD93
:101E8000550F0020520F002070B5114A114B1478E5
:101E90001B78114D1C432B78002B11D00F4B5B8806
:101EA000002B05D0FFF7D4FE002801D0FFF7DCFFA0
:101EB0002D7804F0BDFF002801D0FFF7D5FF2C439B
:101EC0002000074B1A78074B90431B78184370BDCE
:101ED000810F0020800F0020550F0020B435002016
:101EE0007E0F00207F0F002070B50B4C2568FFF798
:101EF000CBFF28702468094D082229002000FEF736
:101F0000A1FA002807D0082221002800FEF710FBC4
:101F1000200004F037FF70BD6C080020460F002041
:101F200070B50B4C2568FFF7AFFF68702468094D4A
:101F3000202229002000FEF785FA002807D0202261
:101F400021002800FEF7F4FA200004F025FF70BD00
:101F500068080020260F002010B5074B1B78002BC7
:101F600006D0064B1B787F2B02D9FFF7D9FF10BD97
:101F7000FFF7BAFFFBE7C046D0080020543400202A
:101F8000704710B5FFF7FCFF10BD00000B4B10B5FC
:101F90005B785B070ED5C300094C19432170FFF72E
:101FA000DBFA05F031F9074B18802078C008FFF7FD
:101FB000E8FF10BDFFF7D0FAFBE7C046543400201D
:101FC000500F00204E0F0020002010B5034B18705A
:101FD000034B1880FFF7D5FF10BDC046500F0020FF
:101FE0004E0F002010B5094A137819008143117073
:101FF0004A070AD1994208D0054B5B785B0704D5A4
:10200000C808FFF7B5FAFFF7DFFF10BD500F00203B
:10201000543400200A4A10B553785907C90F814239
:102020000CD001210840033180008B4303435370DF
:10203000108800F046F80220FFF7D4FF10BDC0461C
:1020400054340020044B10B5587801234007C00FCA
:102050005840FFF7DFFF10BD5434002010B50120B9
:10206000FFF7D8FF10BD10B50020FFF7D3FF10BD5C
:1020700010B5002001F0B2FB0020024901F092FBF4
:1020800010BDC046FFFF0000002010B501F02EFB80
:10209000034B020000209A4201D104F013FD10BD51
:1020A000E5FE000010B5022001F013FB10BD10B5D5
:1020B000032001F00EFB10BD10B5042001F016FB4B
:1020C00010BD10B50100042001F06CFB10BD10B56F
:1020D00001000F2001F072FB10BD10B501001320AC
:1020E00001F06CFB10BD10B50020FFF7F6FF10BD2E
:1020F00010B50020FFF7EBFFFFF7F5FF10BD000064
:1021000007B5002001F06AFB00201F4901F04AFBDF
:102110000021022001F03AFB01211C4B0320197021
:1021200001F034FBA0210420490101F03BFB002118
:10213000062001F02BFB0021072001F027FB0021E6
:10214000082001F03BFB0021232001F01FFB0021B0
:102150000C2001F01BFB00210D2001F017FB0023D8
:1021600000221721009201936846083201F0F1FA2B
:1021700000211F2001F022FB002004F0B7FC04F036
:10218000DFFCFFF7B5FF07BDE5FE0000C90E00202C
:1021900010B5FFF7B5FF10BD10B501000E2001F01E
:1021A000F5FA10BD73B505F02FF8094D04002B8822
:1021B00083420CD06B4600261E8005F025F86B4646
:1021C0009E80588000980199FEF7F8FB2C8073BD23
:1021D000820F002010B500F0CFFA024B1860024BBE
:1021E000186010BD940F0020900F002070477047BA
:1021F00010B5FFF7FCFF10BD704710B5FFF7FCFFEF
:1022000010BD01207047000010B5074800F0C6FA65
:1022100001F0E0FA01F022FE02F092F9FFF7E6FF8A
:10222000FFF7E6FF10BDC046E57C001010B500F0DA
:1022300089FD10BD7047704710B5FFF7FBFFFFF732
:10224000FAFF10BD10B5FFF71FFF002801D1FFF7FF
:102250009FFFFFF727FF084B1870FFF72DFF074B75
:10226000188002F02FFDFFF722FFFFF738F9044B2B
:102270001878FFF758F910BD980F0020543400204B
:10228000C80E002010B504F073FF00F061FA04F0EE
:1022900066FC00F05DFD00F07BFCFFF7D3FFFEF76E
:1022A00066FB02F0D1FF00F06BFDFFF7A6FF10BD4B
:1022B00010B500F047FD002807D003F0A1FB04F0A3
:1022C00099FB02F017FE02F089FB10BDF0B587B054
:1022D000FFF797FF002809D1FFF764FFFFF7E8FF3A
:1022E00003F0C6FFFEF754FB07B0F0BD00F090FC12
:1022F0000024264DE0B22E5D00F068FA092C41D092
:1023000001348642F5D0224B1B789B0701D500F0A3
:1023100063FAFFF78BFF00240390200000F056FAC9
:102320002B780190984225D0002601274340DBB24C
:102330000293029B1F4215D0039B002B12D004ABCB
:102340001E705C7004F060FF012204AB1A715880AB
:10235000019B04983B405A1E934104AA537105996E
:10236000FEF72CFB01367F00F6B2FFB2062EE0D15D
:10237000019B2B700134E4B201350A2CCDD1FFF75B
:1023800029FFABE78642BED1A6E7C046840F0020F6
:10239000980F002070B500F00FF9A4230400DB01B2
:1023A000984246D2A023DB01984200D39EE0DF286A
:1023B00015D8CC283AD8A7280AD8A42800D970E084
:1023C000012803D0031F9BB2A02B06D8201C70BD90
:1023D0000300A83B9BB21A2B67D90024F6E78023A1
:1023E000DB0198421AD28026B601B04200D38BE0BE
:1023F000E728EBD9431EFF3B013EFF3E9BB2B342B1
:10240000EBD2000AC0B200F057F90500E0B200F0CC
:10241000D3F82D023540284384B2D7E7C0B200F08C
:10242000CBF8F0231B0123403F4C03431C43A4B2D1
:10243000CCE7A523DB0198421CD23C4B984242D802
:102440003B4B984209D90321012201408A40C3062F
:102450005B0F5B01374C1343E8E7374B98422DD8AD
:102460000322C4B2A3081440023AA2405B01334CD9
:102470001343DBE7324B984208D81F20314B2040F2
:102480009C422AD8304C000204439FE72F4BC318CC
:102490009BB21F2BA1D8F82304025B011C402C4BDC
:1024A0000AE08023243CDB01C0E75834294BE4B226
:1024B0006400E35A8824E4011C4387E71F23034098
:1024C000254C1B02F8E70321012201408A40C30684
:1024D0005B0F5B01214C1343A8E700F0EDF8F823F4
:1024E000802400025B011840A401CDE71F2020409A
:1024F00000F0E2F8E3051B0F1B02C20600D5000145
:1025000000B2174C034391E7C004C00E00F0D4F8AA
:102510000500E0B200F050F8F8232D025B011D40E9
:1025200005432E43B4B251E700A0FFFF5F52000005
:102530003F520000008CFFFF1F520000008DFFFF84
:10254000BF5200009F520000F4A0000040ADFFFF0A
:10255000F0A0000028BC0010F1A00000008AFFFFDE
:102560000090FFFF0D4B37B51C68002301AD29809B
:102570009C4208D1697823002A78F02905D1F02AF5
:1025800001D1074B1B8818003EBD0929FBD8052A3D
:10259000F9D803F063F80300F5E7C0468829002066
:1025A000B235002007B501AB19800199FFF7DAFFBA
:1025B000FFF7F0FE0EBD0000030010B5E72808D8B5
:1025C000DF2808D8312861D00ED8292855D02A28EC
:1025D00062D0180010BDE0380728FAD8FDF79AFE3F
:1025E00018F9252A38F93F44392808D0822806D01E
:1025F0003528EED12F4A12789206EAD506E02D4A08
:102600001178890750D152781207E2D52923E0E7E3
:102610000121284802780A4236D140780842D8D0B1
:10262000E323D206D5D50023D3E7224A12785107F7
:10263000F6D4CEE71F490A78500733D44978C90742
:1026400032D410210A4051424A4152421340C0E75D
:10265000184A51788907BCD51278E723E1E7154A73
:1026600012781107F9D4B4E712490A7810071DD47B
:1026700049788907E5D5E423ABE70E4A1178890646
:1026800016D452781207A4D53923A2E7094A127842
:1026900052069ED52A239CE7064A1278520698D500
:1026A000312396E7E22394E7E02392E7E62390E7DD
:1026B00035238EE75434002030B5244C21784B0765
:1026C0000DD514220240043A53425A4118230340C4
:1026D000083B5D426B419A4201D00C2358400B07E6
:1026E0000DD514220240143A53425A411823034094
:1026F000183B5D426B419A4201D00C2358406478EC
:10270000E3070DD511220240013A53425A411823E2
:102710000340083B5D426B419A4201D00923584077
:10272000A4070DD511220240113A53425A411823F1
:102730000340183B5C4263419A4201D00923584050
:10274000C90601D51823984330BDC0465434002033
:102750000022014B1A6070475834002010B5040065
:1027600000F0F0FA002804D104F006FD014B241A11
:102770001C6010BD5834002010B500F0E3FA0028AA
:1027800002D004F0F9FC10BD04F0F6FC014B1B680C
:102790001818F8E75834002000207047014B1860E3
:1027A0007047C0467008002010B5024B1B68984760
:1027B00010BDC04670080020704710B5FFF7FCFF41
:1027C00010BD704710B5FFF7FCFF10BD014B185C42
:1027D0007047C0466734002010B50D4800F06EFF0A
:1027E000002421000B4800F069FF0B4800F066FF51
:1027F0000A4B185DFEF79AF8094B0100180000F02B
:102800005DFF0134074800F059FF0A2CE9D110BDE3
:10281000D5B70010E4B70010E9B700106734002006
:10282000ECB7001038B8001010B51E2005F0A8FF56
:1028300010BD000010B5052007F0E2FF5B4B04005F
:10284000984200D8B1E05A4908F002FF594A030003
:10285000944200D898E0C00801380F2800D991E0D0
:10286000FDF76CFD88008000780070006800600053
:102870005800500048004000380030002800200078
:1028800018001000C046C046C046C046C046C046FC
:10289000C046C046C046C046C046C046C046C04608
:1028A000C046C046C046C046C046C046C046C046F8
:1028B000C046C046C046C046C046C046C046C046E8
:1028C000C046C046C046C046C046C046C046C046D8
:1028D000C046C046C046C046C046C046C046C046C8
:1028E000C046C046C046C046C046C046C046C046B8
:1028F000C046C046C046C046C046C046C046C046A8
:10290000C046C046C046C046C046C046C046C04697
:10291000C046C046C046C046C046C046C046C04687
:10292000C046C046C046C046C046C046C046C04677
:10293000C046C046C046C046C046C046C046C04667
:10294000C046C046C046C046C046C046C046C04657
:10295000C046C046C046C046C046C046C046C04647
:10296000C046C046C046C046C046C046C046C04637
:10297000C046C046C046C046C046C046C046C04627
:10298000C046C04607221340581E07280DD8FDF741
:10299000CBFC0B0A090807060504C046C046C04622
:1029A000C046C046C046C046C04610BDFF083D00F8
:1029B00000093D00FF50250210B5FFF735FF10BD9F
:1029C000704710B5FFF7FCFF10BD0000F7B500F031
:1029D000B9F91D4B051E1D4C2BD0002269461878F5
:1029E000009220180A7100F0DDF9194F061E0FD071
:1029F000184B0522187869462018FDF723FD01239E
:102A00003B7000280DD10025FFF7DCFE2800FEBD3D
:102A10003B78002BF7D0010005226846FDF734FD16
:102A20003E700C4B0522187869462018FDF780FD92
:102A3000EAE71978074B61181878201800F020FA97
:102A4000FFF7BFFFE2E7C046713400206734002083
:102A5000990F00205C34002010B572B6D023BE213F
:102A60001B0649005A58002AFCD0BFF35F8F012291
:102A70008240084C9A62C200121905245460064A2A
:102A8000800080184A224260BFF35F8F5B5062B6BD
:102A900010BDC0460040014000C0014070B50A4C66
:102AA0000A4D2068431C01D0FFF7D6FF0434AC4226
:102AB000F7D1074C074D2068431C01D0FFF7CCFF2E
:102AC0000434A542F7D170BD7408002088080020A6
:102AD00060BC001078BC0010F7B5294B0D000093C6
:102AE000009A8B009B5801905A1C48D072B6D02295
:102AF000BE201206400011580029FCD0BFF35F8FA2
:102B0000012426001F4FD9009E40C919052756628F
:102B10004F601D499B005B18402159609661BFF3CF
:102B20005F8F125062B6FFF785FE22000621002457
:102B30009446164806680023771C07D0D0231B064E
:102B40005B68F34066463340013B134001391C4348
:102B50005200C9B2E4B2D2B204300029EAD1009ADC
:102B6000AB00D058431C01D0FFF776FF21004B1E6D
:102B700099412800C9B2FFF71FFF019B5C55F7BDC3
:102B8000740800200040014000C0014060BC0010FB
:102B900070B5184886B00378002B0CD101AB190032
:102BA000154A70CA70C130CA30C114490A0070CBCE
:102BB00070C212CB12C20278052351424A41052449
:102BC000524213400E4A13700E4AE31A1370FFF775
:102BD00065FF0A2200210C48FDF756FC0A2200215D
:102BE0000A48FDF751FC200000F04AF8FFF7E5FD28
:102BF00006B070BD8808002070B600107408002070
:102C0000713400205C340020673400205D340020E3
:102C100030B5002485B00622210002A80194FDF7FA
:102C200033FC2100013401A8E4B2FFF755FF052C65
:102C3000F7D1104C0A22200001A9FDF703FC050082
:102C40006B1E9D41EDB2002804D00A22200001A98C
:102C5000FDF76EFC084B05221978084B2000C918B7
:102C60002B0000F00FF80400FFF7B0FE2043C0B2C5
:102C700005B030BD5D340020713400206734002081
:102C800070470000F7B506001C1E134F009101921B
:102C900007D001233B7004F06FFA104B186000203E
:102CA000FEBD3D78002DFAD00C4B186804F0B8FA40
:102CB0000428F4D93100019A0098FDF7C3FB0028DD
:102CC00005D03100019A0098FDF732FC2C0000235A
:102CD00020003B70E4E7C046A00F00209C0F0020BE
:102CE00010B58023D02405222406DB00A362064B06
:102CF00064205A65054B3D32DA6205F041FD60689B
:102D00004005C00F10BDC0460040014000C001405A
:102D100070B5C82405F0C8FC051E08D1013C054863
:102D2000A4B206F078F8002CF4D105F0ADFC280030
:102D300070BDC04610270000014B58787047C04650
:102D4000A40F0020014B18787047C046A40F002044
:102D500010B5FFF7DDFF084C2070FFF7C1FF607072
:102D6000FFF7EAFF054B1870FFF7ECFF002801D0D2
:102D700000F044F810BDC046A40F002088080020D1
:102D800010B5FFF7DFFF002801D100F03BF810BDC0
:102D900009220020024B1B789A424041C0B2704782
:102DA000A60F002070B5134C050023780E00092BE8
:102DB00012D83100280000F05FF8002816D12378DF
:102DC000FF2B01D0013323702378092B10D904F095
:102DD0001BFA094B188007E0074B188804F019FA12
:102DE000FA235B009842E4D2002070BD00232370D8
:102DF0000120FAE7A60F0020A20F002010B504F072
:102E0000B3FA10BD10B504F09DFA10BDF8B51E0060
:102E100006AB04001D88002A0ED00C200700674373
:102E2000134BFF5C974200D23A0060431B1858884E
:102E3000104BC018FDF77CFB200004F099FA071E28
:102E400013D0002D11D00C210A006243084B9A18B0
:102E500010792A00A84200D2020061435B18D98889
:102E6000044B3000C918FDF763FB3800F8BDC046BD
:102E70008C080020A80F002010B500F099F810BDB4
:102E800010B500F0A7F810BD30B50D4D85B028681D
:102E900004F0C6F9012463280FD9FFF76DFC002365
:102EA0000230039004220220009303A9FFF7AEFF33
:102EB000041E02D004F060F92860200005B030BD87
:102EC000C40F0020264BF0B51D68012389B0009384
:102ED00002AA0E339B180022029110001100FFF786
:102EE00095FF204E041E32D01F4B0135186804F0A8
:102EF00097F963281DD900220527110006AB012090
:102F00000097FFF783FF39000390280002F09DF936
:102F100002ABDB7B83421AD1039B002B17D004F05A
:102F20002BF9114B18600522300006A9FDF700FBB4
:102F30000EE00521280002F088F902ABDB7B83421A
:102F4000D9D10522290006A8FDF7F2FAEBE7002403
:102F5000052231000298FDF7EBFA200009B0F0BD20
:102F600078BC0010B80F0020C00F0020F0B585B06D
:102F7000160002900391FFF70BFF0A27002800D1EB
:102F8000093F012503990298B04700280ED1013569
:102F9000BD420BDC2B0004006B4301930A2005F0BB
:102FA000EFFB019B01349C42F8D1EBE705B0F0BD8B
:102FB00070B5064A04000D00FFF7D8FF002804D0C2
:102FC00029002000024AFFF7D1FF70BDC52E001076
:102FD000892E001070B50D0007F024FB0D4B052263
:102FE0001C682900661C3000FDF7A2FA052130009C
:102FF00002F02BF9207007F01DFB07F013FB064BC6
:10300000A0681A68904202D01860FFF7A7FB07F08B
:1030100011FB70BD78BC0010B40F002010B5FFF795
:1030200055F910BD10B504F061F804F0A4FEFFF7E7
:10303000EBF804F0A5FEFFF725F904F0BBFE04F061
:10304000C1FEFFF7EBFF04F0DBFE04F06FFE04F0BF
:103050005BFE02F0B7F9FFF7EFF8F0E70300DA687C
:103060000800511C10B5D96019698A4204D21C6845
:10307000002C02D05968A04710BD9B689854FBE70C
:10308000F7B51E00C36804000093089B150001916A
:103090009B070DD0002D0DD1089B9B0715D4F7BDC4
:1030A00020212000FFF7DAFF0137B742F8D3F1E71C
:1030B0001700FAE7019B013D2000595DFFF7CEFFA5
:1030C000E8E720212000FFF7C9FFE368009A9B1A78
:1030D000B342F6D3E3E70000F0B58FB004901D00D3
:1030E000081E159F169C039221D123051BD4302264
:1030F00006AB1A70102301309C430200A30740D492
:1031000001232340002F08D0002B3AD0039A002A35
:1031100002D10C32144200D0013F0200002B30D00B
:10312000302106AB29E0102DE7D1AC43E5E7612360
:10313000A20600D541230026DBB20A3B029005938C
:103140002900029808F054FA059B8446C8B2C318B7
:10315000DBB2092901D83030C3B2082204A989188A
:103160008B55029B701C9D42C7D82028C5D0634652
:1031700006000293E4E7D1540132974201D9202A94
:10318000F9D1302306A901E08B540132149E9642F6
:1031900029D9202AF8D1082D0FD1202831D0102389
:1031A00026009E433300A60427D41C003B0004984D
:1031B0000094FFF765FF0FB0F0BD4F4B1C42F5D0F8
:1031C000230525D5102D7AD1A30673D41F2AEDD857
:1031D000230078201C00885401321F2AE6D83023AF
:1031E0008B5401322BE0082D26D1904224D210239B
:1031F00026009E433300A6046CD5240575D51C001B
:10320000EBE73D4B1C42D1D02305DBD4002A3ED056
:10321000149B934201D09742D4D19042D2D2230042
:10322000561E012A18D0102D0CD0022D4FD1023A73
:10323000B0424AD3320048E02F4B1C42E4D11F2A4F
:1032400015D9B3E72024023A1C40B04200D3320023
:10325000002CBED05820BDE7102D11D15822980661
:1032600000D420320A7030221C004A702E3A039B90
:10327000002B31D02D238B54013297E76222F1E7E6
:10328000022DFBD030221C000A702F3AEFE7102DE0
:1032900008D15823A20600D420330B703023022219
:1032A0004B70E4E7022D01D16223F6E730230122BF
:1032B0000B70DCE71F2A00D978E72300CAE7022D4C
:1032C0008BD123001F2A00D970E7622082E71C00FF
:1032D000320082E71C00B2E7630701D52B23CAE75F
:1032E000230700D462E72023C5E7149C944297D0BB
:1032F000974284D194E7C0461020000010B5FFF734
:1033000053FA10BDF0B507000D0014008BB02978FA
:10331000002911D13B68002B0BD13A69002A08D053
:10332000B968002905D0FB68934200D3531E0022E0
:10333000CA54F8680BB0F0BD0020013525290AD029
:103340003800FFF78BFEE2E72D2B21D0302B27D161
:103350002F3B150018432B786A1C2B2B1AD0F3D85F
:10336000202B19D0232B19D02A2B2DD000230493E6
:1033700000222B7805922E2B49D180221201104376
:103380006A786B1C11003039092936D80A262CE0DE
:103390000223DEE70423DCE70823DAE71023D8E77B
:1033A000303B092BE2D800230A26049305E00D00E8
:1033B000049B7343303BD31804932A78691C130091
:1033C000303B092BF3D9D3E708CC0493002B04DA64
:1033D00002231843049B5B4204931500C8E7059B36
:1033E0007343303BD31805932B001A785D1C1100F2
:1033F00030390929F3D91D0009E02A2AFBD108CC6C
:1034000002350593DB43059ADB171A4005922B78AA
:103410006A1C6C2B1FD017D8682B24D06A2B2BD09A
:103420002978013578298BD8632928D8622972D068
:10343000632900D197E0252982D0582900D07FE761
:1034400020231843103B49E0742B01D07A2BE7D19D
:1034500080239B000BE06B786C2BF9D1C023DB0041
:1034600018430235DCE76B78682B03D08023150006
:103470001843D5E7C023F3E78023DB00F7E70B0011
:103480000126643BDBB29E4032007D4B1A401E4257
:1034900013D1732900D18BE0702900D050E7794B0C
:1034A00002CC0343002900D0E0E0009305220A2368
:1034B00038007549FFF7E4FD29E78023DB01642923
:1034C00004D1184310239843063B07E06929F8D03C
:1034D0001023782902D0083B6F29F3D1020501D5CA
:1034E000012290438022D200024041041DD5002ACF
:1034F00000D00CE7216882050FD502900498CE1702
:1035000001900598CA0F8919714000903800FFF7A3
:10351000E3FD0434FBE60223E0E7420601D549B2AD
:10352000EBE70206E9D509B2E7E7002A00D0EEE6AC
:103530000C2106008E43810506D50499029601915F
:10354000059900912168E1E72168420607D5C9B2D3
:10355000049A02960192059A00920022D6E700068C
:10356000F6D589B2F4E702230600221D1E4005921B
:10357000184212D021683800C9B2FFF76FFD00244D
:10358000049B0134A34211D920213800FFF766FDC6
:10359000F6E720213800FFF761FD049B01369E42CB
:1035A000F7D321683800C9B2FFF758FD059CAEE695
:1035B000230004CB06920793002A08D1009006222C
:1035C00038003249049BFFF75BFD079C9FE6059B93
:1035D000002B00D12E4B069A1400D3182278002A13
:1035E00001D0A34214D1069B0200E41A80231B01E0
:1035F0001A400892184203D0059B9C4200D91C0037
:10360000022302001A400992184212D1260006E055
:103610000134E3E720213800FFF720FD0136049B49
:103620009E42F7D3049A0023A24200D3131B013415
:10363000E418069E03E038000136FFF70FFD3178ED
:10364000002907D0089B002BF5D0069B059A9B18F4
:103650009E42F0D1099B002BB7D0049BA342B4D962
:1036600020213800FFF7FAFC0134F6E702930A2321
:103670000193059B380000931023FFF72DFD46E6CC
:103680002108120001200000F8B70010F1B7001067
:10369000FFFFFF7F7FB5074B0A00019300230293D2
:1036A00003930493044B010001A80593FFF72AFE3E
:1036B00007B000BDFD320010FFFFFF7F0FB407B55C
:1036C00004A901C90191FFF7E5FF03B008BC04B0EC
:1036D000184707B500236A46D3716B4601000122E3
:1036E000D81D00F07FF86B46D8790EBD07B50023D2
:1036F0006A46D3806B4601000222981D00F072F8E2
:103700006B46D8880EBD002307B5010001A804222E
:10371000019300F067F801980EBD07B56A460300F3
:10372000D01D01700122190000F063F807BD07B534
:103730006A460300901D01800222190000F059F82A
:1037400007BD07B504220191010001A800F051F85E
:1037500007BDF8B51400D31D6A46DB08DB00D31A99
:1037600000AF9D460500220068460E0000F03AF8C2
:10377000220069462800FCF765FE002804D02200DC
:103780003100280000F035F8BD46F8BD70B50D00D9
:103790000400FFF79EFFA84203D029002000FFF796
:1037A000BCFF70BD70B50D000400FFF79FFFA8427D
:1037B00003D029002000FFF7BAFF70BD70B50D00DF
:1037C0000400FFF7A0FFA84203D029002000FFF764
:1037D000B8FF70BD10B500F07DF910BD10B500F058
:1037E00045F810BD030010B50800190000F056F8A8
:1037F00010BD030010B50800190000F0BBF810BDA3
:1038000070B58025044C6D012A0000212000FCF7D2
:103810003BFE024B635170BDC80F00200810000032
:1038200070B5064D064C02202B5D002B05D100F033
:1038300029FA002801D00120285570BDC80F0020AA
:103840000410000070B5074D074C02202B5D002BC3
:1038500006D000F048FA002802D0002301202B55A2
:1038600070BDC046C80F00200410000070B5FFF7FF
:10387000D7FF0400051E03D1FFF7E4FF200070BD51
:1038800000F002FA0400FFF7BBFF012DF6D1FFF7AD
:10389000D9FF431E98410440F0E70000030070B5D3
:1038A00080249D18080064010021A54204D8034922
:1038B0005918FCF73DFE0121080070BDC80F00201B
:1038C00073B500F0E1F90024A04224D0FFF7A8FF6F
:1038D0008022124D060029002000120100F0E8F9B4
:1038E000A04210D080210E4A0E4B2800490100F062
:1038F00031FF00900191802004226946400100F0D0
:10390000D7F94400E4B2012E01D1FFF79BFF8023D9
:10391000054A5B01EA50200076BDC046C80F002072
:1039200025232284E49CF2CB081000008021802211
:10393000054B49015B58012010B59201934201D318
:10394000FFF7BEFF10BDC046C80F002070B5802431
:10395000074D64010100285900F0BCF90300002064
:10396000834204D02B5902332B51FFF7DFFF70BD88
:10397000C80F00208023F0B5160085B0821805001E
:1039800000915B019A4215D8514F3200C719390096
:103990000098FCF757FD012400280CD03200009954
:1039A0003800FCF7C5FDFFF73BFF019000282CD144
:1039B000FFF748FF0024200005B0F0BD009B1B78F6
:1039C000012E2FD0EA072DD48022D20195423AD27F
:1039D000009A507800021843012823D843425841E6
:1039E0001F234042984360386B0A18436B08DBB2D0
:1039F0001B02C0B21843FFF7A9FF040001285FD1E2
:103A0000009B023E023502330093002ED6D1FFF711
:103A10008DFF0400019B012BCDD1FFF713FF002880
:103A2000C8D0C8E73F2D0ED8402028431B02C0B2A3
:103A30001843FFF78BFF0400012841D1009B013E92
:103A400001350133E0E73700052E00D905270023B3
:103A500000240722029303942B0C1340FA00134313
:103A600002AA13702B0A5370130000999570D81C8A
:103A70003A00FCF75DFD02AB1888FFF767FF040012
:103A800001281DD102AB5888FFF760FF0400012810
:103A900016D1012E0FD002AB9888FFF757FF040014
:103AA00001280DD1032E06D902ABD888FFF74EFFAF
:103AB0000400012804D1009BF61BED19DB19A3E7D4
:103AC000FD2323405A4253415B421C40A2E7C046BB
:103AD000C80F0020F0B589B0FFF792FE00F0C4F8DF
:103AE000002805D1FFF78CFE0024200009B0F0BDAE
:103AF0008022594C00202100120100F0F7F8002824
:103B000031D08021554B564A2000490100F022FE59
:103B1000060080200D00042206A9400100F0E6F80E
:103B2000069BB34202D1079BAB4201D0FFF768FE70
:103B30004C4E04AB9D1D2900300000F0E7F8002832
:103B40005DD02B88002B59D004AA1381DAB2B51CA2
:103B5000910901295BD002295ED080277F010029CD
:103B600004D0E55165E0FFF74BFEBBE70A2104AB4B
:103B70002800C91800F0CAF80028F2D004AB1A7A5D
:103B80000923E02004A95B1819785B78C0021B02A6
:103B90000B435BBA11049BB201400B430293D30861
:103BA00001930723019A351D1A40029B03929B182B
:103BB000BB42D6D80623019A1A4206D0280007A98C
:103BC00000F0A4F80028CCD0B51D019B5B0708D5F8
:103BD0000E2104AB2800C91800F098F8002836D050
:103BE00002350B21029B039AE01804ABC918FCF7BD
:103BF0009FFC80232E009B019D429AD301208023AD
:103C00005B01E650002814D0FFF790FE13E03F213F
:103C10001B0A0A40A354ECE7F8205102800101403E
:103C200080201B0A5B000B43591C4001814208D3D2
:103C30002550FFF745FE041E00D056E7FFF7E0FDD4
:103C400053E79206D20FE25400236354D1E7802356
:103C50005B01E550EDE7C046C80F0020E49CF2CBC5
:103C60002523228408100000802210B50349520049
:103C70000348FCF75DFC012010BDC04600000010A9
:103C8000542000200120704710B5EFF3108372B666
:103C90008021FF20054C89014003236007F0D0FC00
:103CA000236883F31088012010BDC04650200020F7
:103CB00010B5EFF3108372B6054C2360FF235B034E
:103CC000C01807F0CDFC236883F31088012010BDD5
:103CD0005020002007B56B46D98006330122190019
:103CE000FFF7E6FF0EBD01207047000010B552003F
:103CF000054C1218091A904201D1012010BD035B36
:103D0000DB430B520230F6E700E01F1010B5012232
:103D1000FFF7ECFF10BD0000002210B5064B074C6A
:103D2000074808499A6101329C60D86019611C33C8
:103D3000202AF7D110BDC046D825002071420010BE
:103D4000D1410010ED400010A022F0B5124E00212C
:103D500085B052003000FCF797FBC0220F4C0021C9
:103D600020005200FCF790FB002501AF39002660CF
:103D7000E8B201F09FFB002806D10822390030008C
:103D8000FCF7D6FB3B89A38001350A360C34202D85
:103D9000EBD105B0F0BDC04672340020582400209D
:103DA000F823DB01984205D1034B1B685A1E93414F
:103DB0005B4218407047C046B0080020F0B50026AE
:103DC0000227244C85B001AD2900F0B201F096FB2A
:103DD000011E38D1200010220830FCF755FB0922C3
:103DE0002B882380AB79A370AB88E370EB792371C8
:103DF0002B7A63716B88E380AA566B7A002A01DB09
:103E0000154A62610122134200D022723B4202D065
:103E1000227A3A4322720422134202D0217A0A43C0
:103E200022720822134202D0217A0A4322721022FF
:103E3000134202D0217A0A4322722022134202D076
:103E4000237A1A43227201361834202EBBD105B0D2
:103E5000F0BDC046542100205424002010B5FFF7C7
:103E60005BFFFFF771FFFFF7A9FF10BD7FB50400EF
:103E7000202922D140780D281FD8FCF755FA0717C2
:103E80001F1E1E3440491E535C666F720822734920
:103E900001A8FCF74DFB1F220021601CFCF7F4FA7F
:103EA000062308222370201D01A919E07C2323701A
:103EB0007B3B63700023A370E3707FBDE178A37840
:103EC00009021943BE2349015B009942F5D20A0059
:103ED00020329A4200D91A002000614B521AC918A8
:103EE000FCF726FBE9E71F22FF21601CFCF7CCFA58
:103EF0005C4B1B6823705C4B1B686370DDE7012221
:103F0000594B1A60594B31321A6003F07DF9D4E7EE
:103F1000544B1B682370544B1B686370534B1B68D6
:103F2000A370CAE7E078A37800022022210018439A
:103F300000F054FBC1E7E078A37800021F22611C67
:103F4000184300F075FB2070B7E7E078A378000213
:103F50001C22211D184300F085FBF4E700F00AFB4A
:103F6000ABE7A0780628A8D8FCF7DEF9040D1B3AC9
:103F7000455964001F220021601CFCF785FA2023AC
:103F800023706370CCE7E57800210A2201A8FCF7D2
:103F90007BFA280001A901F06BFA20700A22601C4C
:103FA00082E701AD0A22211D2800E678FCF7C0FA5D
:103FB0002888FFF7F5FE28806888FFF7F1FE688003
:103FC000A888FFF7EDFEA880E888FFF7E9FE290042
:103FD000E880300001F05DFA2070FFF79DFE6CE78D
:103FE000E5780A22002101A8FCF74EFA280001A971
:103FF00001F060FAD1E70A22211D01A8E578FCF75B
:1040000097FA6B469889FFF7CBFE6B4601A998811A
:10401000280001F061FA2070FFF796FE4DE7E57881
:104020000A22002101A8FCF72FFA280001A901F0BB
:1040300065FAB2E70A22211D01A8E578FCF778FAB3
:104040006B46D888FFF7ACFE6B4601A9D8802800E4
:1040500001F066FA2070FFF7B1FE2EE7FEB7001000
:104060007CBC0010B0080020882900208429002092
:104070000D4B07B5188080239B01984202D2FCF7B4
:1040800001FB07BD6A46094B138003F0BDF801230D
:104090006A46034353800223FF33938000980199BB
:1040A000FCF78CFCEDE7C046B2350020F0F0FFFFD6
:1040B0000C4B07B5188080239B01984202D2FCF775
:1040C000F7FA07BD6A46084B138003F09DF80123F9
:1040D0006A4618439380508000980199FCF76EFC63
:1040E000EFE7C046B2350020F0F0FFFF70B5214C7D
:1040F00006000D00C8B2210001F0BAF9011E38D146
:104100001D4BD88B00281CD000231C4A07F090FAC6
:1041100000231B4A80185941FA220023920007F01D
:104120007FFA04F078FE0022164BEDB2585DB270B3
:1041300001385A5504281CD8FCF7F6F818050B0D61
:1041400018000120EDE7608800280FD0FFF7B0FFCE
:104150000FE0A088F8E7E0880028F7D1238860887E
:10416000002B04D00028F1D11800EFE720880028A8
:10417000ECD170BD58290020B435002040420F001A
:10418000E70300006229002010B50400FFF770FF6C
:104190000C4BD88B002813D000230B4A002107F0CA
:1041A00047FA0023094A80185941FA220023920055
:1041B00007F036FA04F02FFE2000FFF779FF10BD5C
:1041C0000120F7E7B435002040420F00E70300006C
:1041D00070B5254C06000D00C8B2210001F048F969
:1041E00000283AD1B278214BEDB2012A0DD1727973
:1041F000500733D4D20731D502225A55608800289F
:1042000010D12088002828D00CE0022A23D10420D5
:104210007279024217D1D20707D403225A55A088D7
:10422000002812D0FFF724FF17E05855E088002837
:10423000F8D12088002814D0FFF7A6FF6088002856
:10424000F0D12088EEE705225A552088002804D0B6
:10425000FFF79AFFF5E706225A5570BD01225A551D
:10426000CFE76088CEE7C0465829002062290020A9
:1042700070B50D4C0500C8B2210001F0F9F8002816
:1042800011D12488002C0ED0AB78032B09D120004B
:10429000FFF77AFF2000FFF777FF2000FFF774FF9A
:1042A00001E0032BF9D870BD582900207FB50A4BD7
:1042B0000400C3180D00FF2B09D801AE3100C0B2B5
:1042C00001F0D6F8002802D1308904B070BD290071
:1042D000200000F0E7F9F8E700A9FFFF2020704771
:1042E000030000201F2B03D81C305843014BC0187B
:1042F0007047C046D825002070B54B79002B1CD1E3
:10430000164BC01884B2FF2C17D8154DE0B2290007
:1043100001F0AEF8002810D11C2363431148C318E4
:104320009B78012B0BD12B88002B06D06B88002BA0
:1043300003D0AB88EA88134306D0012070BD022B5E
:10434000FBD1AB88002BF8D01C2301226343C0189B
:1043500043799343437102F0B7FAEEE700A9FFFFF8
:1043600058290020D8250020202070470300002075
:104370001F2B03D818305843014BC0187047C04654
:104380005421002070B5104C0A21A08807F060F974
:104390000E4D0F4B2870E2880A211A7062890D4B6E
:1043A0000D4D1A70A2890D4B1A70E08907F050F973
:1043B0002870228A0A4B1A70628A0A4B1A70A28AE3
:1043C000094B1A7070BDC046B4350020C1080020EA
:1043D000C0080020BF080020BD080020BE08002043
:1043E000BC080020BB080020BA08002013B5080054
:1043F000032A24D90623134A11785278CC070B409C
:10440000E40F234308240C40234310240C4023438F
:1044100020240C40234340240C40C909C9012343F4
:104420000B43D1079207C90DD20F0B43520213431E
:1044300001A904220193FCF77BF8002016BD01209E
:104440004042FBE7543400200300080011005A8862
:1044500010B58A4204D85968FCF76AF8002010BDEC
:1044600001204042FBE7000013B5032A37D904229C
:1044700001A8FCF75DF8FCF727FC0121019A194B14
:1044800050081400084088400C40204394080C4019
:10449000A4002043D4080C40E400204314090C403D
:1044A0002401204354090C406401204394090C402A
:1044B000A4012043D4090C40E4012043140A0C4019
:1044C000520A0A4024025202204310431A88920AD8
:1044D000920210431880FDF7F4FD002016BD012064
:1044E0004042FBE75434002010B5024B188800F01E
:1044F000B9FA10BDB435002070B50024A5B228006B
:1045000000F0A0FF054B195D884202D0280000F0A2
:10451000A5FF0134242CF1D170BDC046B435002074
:1045200010B54388934207D81A004068FCF700F89A
:10453000FFF7E2FF002010BD01204042FBE7000032
:1045400070B50024A0B200F07DFF084B185501346F
:10455000242CF7D10024064D2B69002B00D098475E
:1045600001341435152CF7D170BDC046B435002088
:10457000F8BD0010AF220820154B10B51A80154A5F
:1045800014215A800A221881588200209A80D980EA
:104590005A818918DA811E329A820A32DA82963278
:1045A00099811A833231C33A19829A83D883198444
:1045B00058830333DA77FFF79FFFFCF785FB8020F2
:1045C000054BC0001880FDF77CFDFFF7B9FF10BD5B
:1045D000B43500208813000054340020F0B50E00DC
:1045E00085B00190FF2130001400FBF74DFF012C36
:1045F00017D9002002270C4B0C4D009302AA911DE5
:104600002B88019A0B80934204D902223018FBF7C1
:104610008FFF3800009B9D4203D0871C1435A742B2
:10462000ECD905B0F0BDC04688BF0010F8BD001041
:10463000F8B5040000231427094D3E005E437019AD
:10464000AE5BA64205D18368002B06D10120404213
:1046500004E00133152BF0D1F8E79847F8BDC046C8
:10466000F8BD0010F8B5002314270D4C3E005E4342
:104670003519A65B864205D1EB68002B06D10124D3
:1046800064420BE00133152BF0D1F8E7280098477E
:10469000041E03D12B69002B00D098472000F8BDE1
:1046A000F8BD0010014B188B7047C046B435002090
:1046B000024B587F012318407047C046B435002094
:1046C0000120024B5B7F5B0898437047B4350020A4
:1046D000024B587F0007C00F7047C046B43500201A
:1046E000014BD88A7047C046B4350020272806D829
:1046F0001D2818D8031F0020192B0ED97047382801
:1047000005D82C2805D82B2803D00020F6E76428EC
:10471000FBD1074BDB7E9B0802E0054BDB7E1B09D0
:1047200001209843EAE7024BDB7EDB08F8E7C0464E
:10473000B4350020024BD87E8006C00F7047C046BB
:10474000B4350020024BD87E4006C00F7047C046EB
:10475000B4350020F0B5471806001900100089B0E4
:10476000B74201D809B0F0BD33784A0143401C007C
:104770001B02079300230693E30E1A436301019281
:1047800000931222002320000D0006F051FF009A32
:10479000019B8018594100196941630EEA011A43CF
:1047A000E30103920293029A039B80185941230E5E
:1047B0002A021A43230205920493049A059B801847
:1047C0005941069A079B013680185941C8E70000F5
:1047D000082210B50D4C0220237893432370FDF777
:1047E000A7FA10222378134204D0934302202370A7
:1047F000FDF77AFA20202378034203D08343237005
:10480000FDF772FAFDF7A8FB10BDC046B408002002
:1048100010B50400002902D00220FDF781FAC02261
:10482000054B9201E3189BB2934200D2E4B2200000
:10483000FBF728FF10BDC04600E0FFFFC022054B7C
:1048400010B5C3189BB29201934200D2C0B2FBF7DD
:104850002FFF10BD00E0FFFF30B50F2403092340F8
:1048600020400E3C8440064D5B005A5B2000140043
:104870008443002901D0024394B2EC5230BDC046BB
:104880008C2900200F210309044A0B405B009B5A2E
:104890000840034118000123184070478C2900206C
:1048A000F7B5474E1C0033780500464F0091019242
:1048B0005B0700D474E03888A84202D0002D00D0F5
:1048C0006EE004233178022599430A0031702A40B2
:1048D000033B294209D13C4B00991B88CB1A3B4929
:1048E0009BB209888B4252411300012219001140EA
:1048F0000B00022593403278AA4313433370FFF72D
:10490000ABFFFDF7EBF9284206D0102332782800E0
:1049100013433370FDF7F0F9FDF7E0F92023284D3C
:10492000184205D02A7818001A432A70FDF7E4F9D6
:104930002978244E890722003088C90FFFF768FFC5
:10494000019B002B05D1224BD88B00280ED10120D2
:104950001AE021003088FFF7EDFE0028F3D0210097
:104960003088FFF7EFFE0028EDD1F7BD0023194A8C
:10497000002106F05DFE0023174A80185941FA22F3
:104980000023920006F04CFE04F045FA297822003C
:1049900089073088C90FFFF751FFFFF719FF0AE0B9
:1049A0002800FFF76FFF220001002800FFF746FFF5
:1049B0003B88AB42F1D0044B009A1A80D5E7C04641
:1049C000B4080020B6290020B8290020B60800202D
:1049D000B435002040420F00E703000010B5012469
:1049E0000C4BDB7E234214D00B4B1B785B0710D59E
:1049F00002F00AFC094B0A4A1B881288C31A9BB2B0
:104A000001009A4205D8074A074B10882200FFF799
:104A100047FF10BDB4350020B4080020B82900209D
:104A2000B6080020B6290020AC290020012010B5CE
:104A3000040005490B78DA07D20F944383432343DC
:104A40000B70FFF7C5FE10BDB4080020012110B5A2
:104A5000034A13788B431370FFF7BAFE10BDC046AC
:104A6000B4080020014B18807047C046B6080020EB
:104A7000F0B57B4F0400FB7E0D0085B0DB0762D5EF
:104A800002F0C2FB02906B79002B5FD0754E337839
:104A90005B0705D500220100734B1000FFF700FFF4
:104AA000724B9C4242D0724B9C4238D0714B9C421C
:104AB0003FD1012332781343337029002000FFF7E0
:104AC00015FE6A79002800D1C6E0002A00D1BDE0B9
:104AD000FDF704F90600FDF751F930430226664B55
:104AE000C0B2B043019347D00023019A1380FB7EEC
:104AF0001F00374033423FD139002000FFF7ACFEA2
:104B00002A0039002000FFF783FEFDF737F9B04394
:104B1000C0B2FDF78FF93000FDF764FA71E0FFF7DE
:104B200085FF504B1B78DB070DD5C6E7FFF78EFFDF
:104B3000F7E7C022514B9201E3189BB29342F0D2A7
:104B400000224D4B1A80012005B0F0BDE12C05D1AB
:104B50001021444A13788B431370E2E7E52C03D10C
:104B6000404A20211378F6E7C022444B9201E31813
:104B70009BB29342D5D2E6E73B4E0A223000290091
:104B8000FBF7D6FC00237380019B3D4A1B88354E02
:104B900003929C423CD129002000FFF7CBFD002866
:104BA00036D0019B188833789B072CD4039B029A3C
:104BB0001B882900D31A9FB2019B1888FFF776FB48
:104BC000874225D2FDF78AF80222104206D0102330
:104BD000317810000B433370FDF78EF8FDF77EF847
:104BE0002023184205D0327818001A433270FDF79E
:104BF00083F83178019B89072A001888C90FFFF7CD
:104C000007FE0020A0E72900FFF79CFD0028CDD17A
:104C1000FDF764F80500FDF7B1F80223022705430C
:104C20002B403578BD431D433570FDF7A7F8B843D9
:104C3000C0B2FDF7FFF8019B029A1C80039B38006D
:104C40001A80042332781343337065E72B00200069
:104C50000299FFF725FED4E7002A00D070E772E73B
:104C6000B4350020B4080020AC290020147C0000DA
:104C7000157C0000137C0000B629002000E0FFFF37
:104C8000B829002010B5FDF7F3F910BD10B50020CC
:104C9000FDF79CFD0123184010BD000010B5FDF785
:104CA000B7FF074804F0B7F8FDF7B2FFFFF7EEFFD4
:104CB000002803D0FFF7E6FF02F0C6FA10BDC04699
:104CC0003075000010B5FFF7E9FF10BD7047000018
:104CD000F7B51B4F3B78002B07D01A4E34783B7842
:104CE000A34203D800233B703370F7BD631CDBB2D3
:104CF000019333700E236343134D5B191A79002A15
:104D000010D01A89002A0FD15889104A90420BD02E
:104D10000121FFF7DBFF0E235C4300232D192B71CC
:104D2000FDF70EF8019CDAE758881A88D988000444
:104D300010439A88090411431A89FCF71DFFEAE71A
:104D4000362A0020BA290020C6290020FFFF0000D3
:104D5000704700000023074A1380074AD1790029D1
:104D600001D19171117201339BB20C32202BF5D11C
:104D70007047C046382A002058240020F0B50E4C59
:104D80000E4B25781A7803262B000D499A420FD036
:104D90005F007F5A87420CD10C214143094A5218C7
:104DA00001219171AB4203D103225B1813402370A0
:104DB000F0BD01333340E9E7C4290020C5290020B4
:104DC000BC29002058240020F0B58B7985B00190D3
:104DD000002B38D11E001F4A1F4C127803920398F3
:104DE000DAB290422CD9A28917000A6802921B4AB3
:104DF00094460022029855002D5A002D05D0AF424E
:104E000000D194460132D2B2F4E7144884451DD053
:104E100001206746B8400643012090400200F6B2E8
:104E2000013AB24211D10E2463430B4AD3188A8847
:104E30001D801A8104221A71019A5A810123CB71B3
:104E40000198FFF79BFF05B0F0BD257101330E34CB
:104E5000C5E7C046362A0020C6290020FFFF000013
:104E600070B50C2503260B4B1C780B4B1B78A3420B
:104E700004D1FFF72DFFFFF76DFF70BD2900074B31
:104E80006200D05A064B41430134C918FFF79CFF1A
:104E90003440EAE7C4290020C5290020BC290020AD
:104EA00058240020F7B504000125080000212368DC
:104EB0000A000193AC460B00019E5500AD5B002D2E
:104EC0000FD003681F00002304E0B54200D1614603
:104ED0000133DBB25E00F65B002EF6D10132D2B2B6
:104EE000EAE7002903D09A4200D82000FEBD08005E
:104EF000FCE70000104B70B51B78002B14D00F4C52
:104F00002088002810D002F084F90D4E33888342A7
:104F10000AD20C4A0C4B12781B7800259A4204D016
:104F2000FFF79EFF3580258070BDFFF7D1FE2580FD
:104F3000FFF710FFF8E7C046B80800203A2A002023
:104F4000382A0020C4290020C52900200022074B50
:104F500010B51A80064B1A70064A074B12781A7061
:104F6000FFF7F8FEFFF7B4FE10BDC0463A2A002056
:104F7000B8080020C5290020C4290020054B10B521
:104F80001A78002A02D0FFF7E1FF10BD01221A7043
:104F9000FBE7C046B8080020F0B59C4B8BB00290F0
:104FA0000191984208D14B79002B1BD00122984BDC
:104FB0001A7001200BB0F0BD964B029A9A4206D1AE
:104FC000019B5B79002B0DD0FFF7C0FFF1E7924BFF
:104FD000029A9A4206D1019B5B79002B02D0FFF71F
:104FE000CDFFE6E78D4A8E4B10781B781843FBF710
:104FF0008EFC0400FFF7ACFE844204D0019B1988AC
:10500000FDF7B0FA02900023864C0093039300252D
:105010002268854E6B009B5A002B06D0029999425C
:1050200000D12E000135EDB2F4E77F4A0493964299
:1050300030D0A079002800D096E0754B1B78002B6B
:1050400000D191E0019A52790492002A00D18BE0BC
:1050500021000098FFF744FBE3790700002B09D1FA
:105060000122B240237A13432372704B1A88824282
:1050700000D218800123AB40227A013B934209D130
:105080006B4B188800283BD002F0C3F8874237D218
:105090000123A371039A049B0C341343DBB20393E3
:1050A000009B01339BB20093202BB0D1019B5B7915
:1050B000002B00D199E0039B002B00D195E002F07A
:1050C000A3F85B4B18805B4B1D78072D14D86A1C26
:1050D0001A7001990A2207A8FBF72AFA0E236B43DC
:1050E000554C0A22E418200007A9FBF721FA0123F6
:1050F0005B426381029BA3810120039B584059E7D7
:1051000000200C274D4B1D784D4B1B780593059BBC
:105110009D420BD1A042BDD04A4B00996A00D152AA
:105120000322474B013515401D70B3E7454B6A001C
:10513000D65A3C4B7E43F61821003000FFF7B2FEF2
:1051400000280DD001238371A042A3D03B4A1378DD
:105150009D4205D1864203D103216B1C0B40137085
:10516000032301351D40D2E7E779227A002F12D1BF
:105170000121A9400139914207D000230121B1400A
:10518000227A04938A43227284E70028F6D000989A
:10519000FFF7F4FDF1E713001100501E3341014009
:1051A00002421FD1012213421CD0A388002B14D02D
:1051B00007AD07322800FBF767F902F025F8042352
:1051C0002B71A38868802B8107980899099AFCF7AE
:1051D000D3FC0023E3713B00D0E719000098FFF7F0
:1051E00075FDF6E701221340C8E7144A144B127804
:1051F0001B789A4202D0FFF733FE7DE7FFF768FD88
:1052000000220B4B1A80FFF7A5FD75E7507C0000CC
:10521000B8080020517C0000527C0000C80E00201D
:10522000C90E002058240020FFFF0000382A00206B
:105230003A2A0020362A0020C6290020C42900204E
:10524000C5290020BC2900207047030070B5411813
:105250003125FF208B4200D170BD08241A785040C0
:1052600046B24200D0B2002E01DA6A40D0B2013C10
:10527000002CF5D10133EDE7F0B585B00292039330
:10528000002802D1002005B0F0BD0029FAD0029B11
:10529000002BF7D0039B002BF4D0040000232278CE
:1052A000002A2CD1184D01922F787B1CDBB22B7079
:1052B000002B19D000263201825C9A4214D00136AC
:1052C0008E42F8D1019A002A01D00F4A13702B7830
:1052D000237001F051FF029BC018039B6060A36024
:1052E0000A9B2878E360CEE701225E1CF6B20192A9
:1052F000BB4202D1044B1E70C4E73300D8E7013330
:1053000010348B42CBD1BDE7C02A0020030010B57A
:1053100000280ED0081E0CD0101E0AD01800002342
:105320000478944206D10023037043608360C36015
:10533000012010BD013310308B42F1D10020F8E77D
:10534000F7B516000400019101F016FF336805005F
:10535000C31A002B04DD30600026019B9E4200D161
:10536000F7BD2778002F0ED06068431B002B0ADCA6
:10537000A368E16898472378BB4204D1002805D090
:1053800063681B18636001361034E6E720706060C4
:10539000A060E060F7E7000013B5044C0B0000923A
:1053A000082102002000FFF767FF16BD3C2A0020FD
:1053B00010B5034B020008211800FFF7A7FF10BD2E
:1053C0003C2A002010B50821024A0348FFF7B8FF25
:1053D00010BDC046BC2A00203C2A00200720704790
:1053E0000C234B4352009B18782250431818283046
:1053F0007047002370B506280FD809290DD8052A53
:105400000BD8FFF7EDFF0400FEF763F90502601CFF
:10541000FEF75FF9ADB2284383B2180070BD70B5D6
:105420001D0006280DD809290BD8052A09D8FFF731
:10543000D7FF0400290AFEF7A9F9E9B2601CFEF7BC
:10544000A5F970BD030010B50020232B05D8DC2280
:105450009200981880B2FEF73CF910BD10B52328D1
:1054600005D8DC239B00C01880B2FEF78FF910BD71
:10547000030010B508001F2B08D80A22E52153436A
:1054800089005918FEF7AEF9002010BD01204042F6
:10549000FBE7030010B508001F2B08D80A22E521FE
:1054A000534389005918FEF7A4F9002010BD0120CC
:1054B0004042FBE7030010B508001F2B07D80A2263
:1054C000534304495918FEF78DF9002010BD0120FF
:1054D0004042FBE7D4040000030010B508001F2B76
:1054E00007D80A22534304495918FEF782F90020CD
:1054F00010BD01204042FBE7D4040000030010B5BA
:1055000008001F2B07D80A22534304495918FEF7F5
:1055100069F9002010BD01204042FBE7140600009D
:10552000030010B508001F2B07D80A225343044973
:105530005918FEF75EF9002010BD01204042FBE73C
:1055400014060000F0B52C4B8DB01A6800250192AE
:1055500001221A60002413E0E3B2EFB21900F2B2A4
:1055600038000093FBF744F8F2B2030000993800CA
:105570000136FFF754FF062EEED101340A2C01D07C
:105580000026E9E70135072DE4D1FEF7F3FF0024FB
:10559000C82303AD039404942B81E0B229000134A5
:1055A000FFF777FF202CF8D10A22002106A8FAF78E
:1055B0006BFF0024E0B206A90134FFF78DFF202C19
:1055C000F8D10922002109A8FAF75EFF012325215D
:1055D00000245B4202AA1384083352181370E0B20D
:1055E00009A90134FFF79CFF202CF8D1024B019A46
:1055F0001A600DB0F0BDC046B0080020F8B52830E4
:10560000D227140005005618BF00B44200D1F8BDDF
:105610002B00283B0020BB4202DA2800FEF759F895
:10562000207001350134F0E7F8B5D22704001500E9
:10563000BF00B84206D23A1A8A4203DB28346E18F9
:10564000B54200D1F8BD2300283BBB4203DA20005D
:105650002978FEF79BF801350134F1E7002310B5F6
:10566000062806D8092904D8052A02D8FFF7C1FE62
:105670000300180010BD102070470000004870475C
:10568000AC08000070B5140005005618B44200D1F3
:1056900070BD064B00209D4203DC054BE818FEF769
:1056A00018F8207001350134F0E7C046AB0800005F
:1056B0005407000070B5140005005618B44200D11C
:1056C00070BD054B9D4204DC044B2178E818FEF7C1
:1056D0005DF801340135F1E7AB0800005407000024
:1056E00070B58025044C6D01200000210134FEF7C7
:1056F0004DF8AC42F8D170BD54070000F7B5050075
:105700000F2800D97FE04048FDF7E3FF00287AD159
:1057100080263E4C7601002D21D1002720000197E4
:10572000FDF7D7FF01AD661C2870B8426BD0012889
:1057300064D13000FDF7CDFFA71C6870002862D04F
:10574000431E022B16D83800FDF7C3FFA8700028AF
:1057500002D0280000F0D8FFE61C3400DDE7B44298
:1057600051D02000FDF7B5FF01340028F7D1013DED
:10577000EDB2D0E7431F022B24D83800FDF7A9FF74
:10578000E61CA8700028E8D03000FDF7A2FFE87002
:1057900000280FD0FF2368881B02984201D900021D
:1057A00080B26B78062B07D0072B08D0052B01D1D0
:1057B000FEF7EAFC261DD0E7FEF75AFCFAE7FEF7F3
:1057C00077FCF7E73E000428C7D13800FDF781FFDA
:1057D0000500E01C261DFDF77CFF002D13D00028DE
:1057E00011D0FF2401384443013D6419FA25AD006E
:1057F000013CB2D3280003F00EFBF9E73900280082
:1058000000F016FFA9E7F7BDFF0F000054070000E6
:10581000244B70B50C000125984238D1FCF75EFA94
:10582000214B9A7E2A4203D044210023084201D111
:10583000AA230340910705D5112101404D4269413A
:1058400049420B406479194D510710D5882108420F
:105850000DD0082321001A421BD1002C0FD12B7828
:105860002920002B00D00C3001F08EFB0CE0210031
:10587000120710D5222210420DD0002CEFD00021AB
:105880002920297001F064FBFCF766FB0025280045
:1058900070BD0023EEE7002CE1D03520002BF0D1C5
:1058A0001900EDE7167C0000B4350020C12A002065
:1058B00070B50A4D0400286801F0B2FCFA235B00C1
:1058C000984207D22868064A1060064A1360064BC1
:1058D0001C8070BD01F050FC3223F4E7CC2A00207C
:1058E000C82A0020C42A0020C22A0020027903000E
:1058F00000200A420AD19A780130002A06D01B7A89
:1059000011401B0703D54B1E9941C8B270470F23A6
:105910001000120918400B4009090B431043C01A2C
:1059200043425841C0B2F1E7F8B5244E070033684E
:10593000002B3CD00022224B1A80FCF719FAFCF70E
:105940000BFAF82233685201DC88611EFF3991425C
:1059500001D21C4A1440E4B225006A1E9541DA685F
:10596000EDB2002A03D00020196990470540002DB0
:1059700006D0231FDBB2A02B1AD8200001F004FBB5
:10598000114C002F0ED033681A7AD2060AD422782E
:10599000002A07D018880D4A431E9BB2934201D8B3
:1059A000FFF786FFFCF7D8FA002333602370F8BDB9
:1059B000FCF7D2FA2000FBF7A3F8E1E7D42A002095
:1059C000C22A0020FFE0FFFFD22A00203E7E000016
:1059D000002010B5024B1870FFF7A6FF10BDC0469F
:1059E000B9080020054B10B51A78002A02D0FFF73D
:1059F000EFFF10BD01221A70FBE7C046B908002076
:105A000070B50A4C2388002B0ED0094E306801F087
:105A100007FC084D2B68984206D32088FAF732FE1F
:105A20000023238033602B6070BDC046C22A002053
:105A3000C82A0020C42A0020F0B54C7907000E00C7
:105A400087B0002C14D09B4B98420AD09A4B9842B6
:105A50000BD09A4B98420BD1FFF7C4FF002007B040
:105A6000F0BD0122964B1A70F8E7FFF7B1FFF5E79A
:105A7000934B1B78002B01D10120F0E73B00E03B6A
:105A80009BB20293FCF72AF90190FCF7DBF80500C2
:105A9000FCF774F9019B1D432843C3B20193029B99
:105AA000072B37D86B46042207219A560123394029
:105AB0008B4011005BB29943C9B20191002C02D016
:105AC0001A43D3B201933088FBF7CAFD0500FEF7F5
:105AD0004BFC00280ED00123AB4005930023039319
